:10000000E01F001049410000C5410000CD41000043
:10001000000000000000000000000000451BFFEF92
:10002000000000000000000000000000D5410000BA
:100030000000000000000000DD41000045660000F7
:100040001575000051750000ED410000ED41000004
:10005000ED410000ED410000ED410000ED410000E8
:10006000ED410000ED410000000000000000000034
:100070000000000000000000ED4100008D75000050
:10008000ED410000ED410000ED410000D54D0000C4
:10009000ED410000ED410000ED410000ED410000A8
:1000A000ED410000ED410000ED410000ED41000098
:1000B0000000000000000000ED4100000000000012
:1000C000907F00000002001048000000480200106D
:1000D0008404000080B588B000AFF860B9607A6031
:1000E000BB68FB61FB68BB6100237B610AE0FB69C5
:1000F0001A1DFA61BA69111DB96112681A607B692B
:1001000004337B617A697B689A42F0D3C046BD466E
:1001100008B080BD80B584B000AF786039607B687E
:10012000FB600023BB6007E0FB681A1DFA60002239
:100130001A60BB680433BB60BA683B689A42F3D369
:10014000C046BD4604B080BD80B584B000AF1A4B38
:10015000FB6014E0FB681A1DFA601B68BB60FB685B
:100160001A1DFA601B687B60FB681A1DFA601B6829
:100170003B603A687968BB681800FFF7ABFFFA6824
:100180000E4B9A42E6D30FE0FB681A1DFA601B681B
:100190007B60FB681A1DFA601B683B603A687B68ED
:1001A00011001800FFF7B6FFFA68054B9A42EBD32F
:1001B00003F03EFCFEE7C046C0400000CC4000001B
:1001C000D440000080B500AFFEE7C04680B500AF68
:1001D000FEE7C04680B500AFFEE7C04680B500AF81
:1001E000FEE7C04680B500AFFEE7C04680B500AF71
:1001F000FEE7C04680B582B000AF78607B685B6880
:1002000001221A437B685A60C046BD4602B080BDD9
:1002100080B582B000AF786039607B683A68DA6098
:10022000C046BD4602B080BD80B584B000AFF86066
:100230007A600B23FB180A1C1A700B23FB18002290
:100240009A56FB68063292007968D150C046BD4686
:1002500004B080BD80B582B000AF78600A00FB1C9E
:100260001A707B685969FB1C00229A5613005B00C8
:100270009B1801229A4013000A001A437B685A61B6
:10028000C046BD4602B080BD80B582B000AF786088
:100290000A00FB1C1A707B685969FB1C00229A56E5
:1002A00013005B009B18013301229A4013000A00DF
:1002B0001A437B685A61C046BD4602B080BDC04645
:1002C00090B583B000AF78600C0010001900FB1CE3
:1002D000221C1A70BB1C021C1A707B1C0A1C1A7090
:1002E000FB1C1A78BB1C1B78791C087879685201B2
:1002F0008A18011CD154C046BD4603B090BDC0460B
:1003000080B582B000AF786008001100FB1C021CB1
:100310001A70BB1C0A1C1A70FB1C1A78BB1C1B78B9
:10032000796852018A18D35CDBB25A1E9341DBB262
:100330001800BD4602B080BD80B582B000AF7860C5
:1003400008001100FB1C021C1A70BB1C0A1C1A704E
:10035000FB1C1A78FB1C19787B68802000018446FE
:1003600061448900CB58B91C0978012088400100FC
:10037000C94319407B688020000184466244920092
:10038000D150C046BD4602B080BDC04680B582B0E7
:1003900000AF3B1D90221A703B1D04225A703B1D7A
:1003A00005229A70391D8023DB050322180003F013
:1003B00065FAC046BD4602B080BDC04680B500AFFC
:1003C000A023DB05132201211800FFF7B5FF134915
:1003D000124A8023D358124A134080228B500F496F
:1003E0000E4A8E239B00D358A122D2001A438E239B
:1003F0009B00CA500B4B0B4A126801210A431A603A
:100400000649064A8D239B00D358102293431A00B5
:100410008D239B00CA50C046BD4680BD008004406D
:10042000FFB7FFF30080034080B500AF002100203C
:1004300003F0FCF80021012003F0F8F8002102206D
:1004400003F0F4F8C046BD4680BDC04680B500AF9D
:100450000121002003F0EAF80021012003F0E6F872
:100460000021022003F0E2F8C046BD4680BDC04630
:1004700080B500AF0021002003F0D8F80121012051
:1004800003F0D4F80021022003F0D0F8C046BD46A6
:1004900080BDC04680B500AF0021002003F0C6F843
:1004A0000021012003F0C2F80121022003F0BEF870
:1004B000C046BD4680BDC04680B582B000AF0200D8
:1004C000FB1D1A70FB1D1B78002B02D1FFF7ACFF40
:1004D00013E0FB1D1B78012B02D1FFF7B7FF0CE0E7
:1004E000FB1D1B78032B02D1FFF7C2FF05E0FB1DAC
:1004F0001B78022B01D1FFF7CDFFC046BD4602B0ED
:1005000080BDC04680B500AFA023D80501230C22D2
:100510000021FFF7D5FEA023D80501230D220021DD
:10052000FFF7CEFEA023D80501230E220021FFF7FE
:10053000C7FEA023DB050C2200211800FFF7FCFEFC
:10054000A023DB050D2200211800FFF7F5FEA023F4
:10055000DB050E2200211800FFF7EEFEC046BD4667
:1005600080BDC04680B582B000AF0200FB1D1A708E
:10057000FB1D1A78A023DB0500211800FFF7C0FE41
:1005800003005A1E9341DBB201225340DBB21A1C16
:1005900001231340DBB21800BD4602B080BDC04647
:1005A00080B584B000AF78600823FB1800225A7031
:1005B0000823FB1890221A700823FB180221180048
:1005C00002F0FEFF0C23FB1891221A700C23FB187B
:1005D0000321180003F00AF80C23FB185A787B68F3
:1005E0001A707B6801330C22BA1892781A70C046D0
:1005F000BD4604B080BDC04680B584B000AF786011
:10060000124B124A1268802149040A431A60C046FC
:100610000E4B5B6A002BFBDA0E23FB180B481A000B
:10062000052103F0A1F80E23FB181B88DAB27B68C2
:100630001A707B6801330E22BA181288120A92B21D
:10064000D2B21A70C046BD4604B080BD00C00140A1
:1006500080B584B000AF78600023FB601749174A6B
:100660008023D35880229201134380228B50134958
:10067000124A8E239B00D358102293431A008E23D4
:100680009B00CA500E4B0022DA600E4B1B687A6842
:100690001100180003F0FDF90300013BBB60BB68CB
:1006A0001B02FB60FB6820221343FB60044BFA68CB
:1006B0001A60C046BD4604B080BDC04600800440FC
:1006C00000C00140C806001080B500AFFFF71AFF58
:1006D000FFF75CFE034B1800FFF7BAFFC046BD46AC
:1006E00080BDC0466018230080B500AF0D490D4A9B
:1006F0008023D35880229200134380228B500A4BD0
:1007000002225A60084B094ADA60074B14229A61A8
:10071000054B054A526903210A435A61C046BD464A
:1007200080BDC0460080044000400140E02E000033
:1007300080B500AF124B180003F044F9104B1800BD
:1007400003F062F90E4B96211800FFF761FD0C4B88
:10075000002200211800FFF767FD094BFF2201214D
:100760001800FFF761FD064B00211800FFF772FD2E
:10077000034B01211800FFF76DFDC046BD4680BD4B
:100780000080014080B500AF034B1800FFF732FD39
:10079000C046BD4680BDC0460080014080B582B0E5
:1007A00000AF02F0FBFF03007B60194B180003F061
:1007B00009F9174B180003F027F9154B962118007B
:1007C000FFF726FD124B002200211800FFF72CFD39
:1007D0000F4B002201211800FFF726FD0C4BFF22D2
:1007E00002211800FFF720FD094B094A526F03212F
:1007F0000A435A67064B02211800FFF745FD044BD8
:100800001800FFF7F7FCC046BD4602B080BDC046E9
:1008100000C0004080B582B000AF0200FB1D1A701E
:10082000BB1D0A1C1A70FB1D1B78022B07D1BB1DB8
:100830001B7809481A000021FFF7F6FC08E0FB1DB1
:1008400000215956BB1D1B7804481A00FFF7ECFC29
:10085000C046BD4602B080BD0080014000C00040DF
:1008600080B582B000AF0200FB1D1A70FB1D1B7823
:10087000002B0CD00C4B0C4A126A02210A431A625C
:10088000094B094A526A02210A435A6207E0064BA1
:100890009022D2001A62044B9022D2005A62C046C3
:1008A000BD4602B080BDC0460040044080B592B055
:1008B00000AF3B001800FFF79FFE3B005B781B0278
:1008C00019B23B001B781AB24623FB180A431A8060
:1008D0004623FB1800229A5EC2239B009A4203DD46
:1008E0003B1D7F225A7138E04623FB1800229A5E96
:1008F000BB239B009A4203DD3B1D7D225A712CE0F5
:100900004623FB1800229B5E304A934203DD3B1DC9
:1009100077225A7121E04623FB1800229B5E2C4A65
:10092000934203DD3B1D74225A7116E04623FB18E7
:1009300000229A5EA9239B009A4203DD3B1D72228E
:100940005A710AE04623FB1800229A5EA9239B00F5
:100950009A4202DC3B1D70225A713B1D7C221A70A8
:100960003B1D00225A703B1D38229A703B1D3922D4
:10097000DA703B1D14221A713B1D5E229A713B1DD9
:100980006D22DA713B1D0C221A723B1D01225A7234
:100990003B1D06229A72391D8023DB050B221800AD
:1009A00002F06CFF012001F027FE3B1D80229A70AF
:1009B000391D8023DB050322180002F05FFF0120B0
:1009C00001F01AFEC046BD4612B080BDD202000042
:1009D000BA02000080B582B000AF3B1D7C221A70C5
:1009E0003B1D00225A703B1D08229A70391D80233E
:1009F000DB050322180002F041FF012001F0FCFD9D
:100A0000C046BD4602B080BD80B582B000AF3B1D80
:100A10007C221A703B1D00225A703B1D0C229A70DA
:100A2000391D8023DB050322180002F027FF012077
:100A300001F0E2FDC046BD4602B080BD80B594B075
:100A400000AF786039600823FB187C221A700823F5
:100A5000FB1800225A700823FB1802229A70082300
:100A6000F9188023DB050322180002F007FF082392
:100A7000FB1840225A700023FB640BE0FB6C02332E
:100A8000FA6C79688A1811780822BA18D154FB6C6C
:100A90000133FB64FA6C3B689A42EFDB3B6802333C
:100AA0001A000823F9188023DB05180002F0E6FE7F
:100AB000C046BD4614B080BD80B584B000AF0023F1
:100AC000BB601FE0BB68FB6000237B600FE0FB683E
:100AD0000122134005D0FB685B080F4A5340FB60BE
:100AE00002E0FB685B08FB607B6801337B607B682E
:100AF000072BECDD094BBA689200F968D150BB684E
:100B00000133BB60BB68FF2BDCDD054B01221A60A3
:100B1000C046BD4604B080BD2083B8ED4802001039
:100B20004806001080B584B000AFF860B9607A6004
:100B30007B689AB2B968FB68180000F005F80300FA
:100B40001800BD4604B080BD80B586B000AFF86027
:100B5000B960BB1D1A80FB687B61134B1B68002BBF
:100B600001D1FFF7A9FF00233B6112E03B69BA689E
:100B7000D3181B781A007B695340FF221A400B4B95
:100B80009200D2587B691B0A53407B613B69013359
:100B90003B61BB1D1A883B699A42E7DC7B69180000
:100BA000BD4606B080BDC046480600104802001091
:100BB00080B582B000AF0200FB1D1A70064BFA1D13
:100BC000127811001F220A40012191400A001A6088
:100BD000C046BD4602B080BD00E100E080B582B0F5
:100BE00000AF0200FB1D1A70084AFB1D1B7819009C
:100BF0001F230B40012199400B001900C0235B000B
:100C0000D150C046BD4602B080BDC04600E100E004
:100C1000B0B582B000AF02003960FB1D1A70FB1D39
:100C20001B787F2B32D92F4CFB1D1B781A000F230A
:100C30001340083B99082B4AFB1D1B7818000F2313
:100C40000340083B9B0806339B00D31804331B6802
:100C5000FA1D1278100003220240D200FF209040BB
:100C60000200D2431A403B689B01FF201840FB1D45
:100C70001B781D0003232B40DB00984003001A4320
:100C80008B1D9B00E31804331A6027E0164CFB1DF4
:100C90001B785BB29B081449FA1D127852B2920875
:100CA000C03292005258F91D097808000321014012
:100CB000C900FF2088400100C94311403A689201F1
:100CC000FF201040FA1D1278150003222A40D2009E
:100CD000904002000A43C0339B001A51C046BD46F3
:100CE00002B0B0BD00ED00E000E100E080B582B0F0
:100CF00000AF78607B68013B0C4A934201D9012325
:100D000010E00B4B7A68013A5A6001235B420321E1
:100D10001800FFF77DFF064B00229A60044B072264
:100D20001A6000231800BD4602B080BDFFFFFF001F
:100D300010E000E080B582B000AF0200FB1D1A7029
:100D4000034BFA1D12781A60C046BD4602B080BD42
:100D50000080044080B500AF0649064AA8235B0026
:100D6000D35810221A43A8235B00CA50C046BD4680
:100D700080BDC0460080044080B582B000AF78607E
:100D80000A00FB1C1A707B681B68FA1C12781100A1
:100D90000F220A40012191400A0013405A1E93413C
:100DA000DBB21800BD4602B080BDC04680B582B03F
:100DB00000AF78600A00FB1C1A70FB1C1B785BB24A
:100DC00001229A4013001A007B681A60C046BD4693
:100DD00002B080BD80B500AF154B00211800FFF7B1
:100DE000CBFF031E08D0124B00211800FFF7DEFFD7
:100DF0000021002002F01AFC0D4B01211800FFF722
:100E0000BBFF031E10D00A4B01211800FFF7CEFFD5
:100E1000074B180002F0F8FD054B9B69002B03D02F
:100E20000121002002F002FCC046BD4680BDC04644
:100E30000080014080B584B000AF72B600F090F839
:100E40000120FFF777FF62B60E23FB1800221A700D
:100E50000023BB603D4B00221A6000237B600E2301
:100E6000FB18180000F076FD00F0D8FC0E23FB18EC
:100E70001B78022B01D100F05DFA354B1B68302145
:100E8000180001F027FD324B1B680C21180001F0FF
:100E90000DFDFFF729FC2E4B1B680121180001F006
:100EA00053FD2B4B1B680121180001F027FD00F0BA
:100EB00093FA284B40220021180002F0B5FD244B84
:100EC0001868244AF8231901402301F003FE0F2378
:100ED000FB18204A3C21525C1A700F23FB181B7828
:100EE000433B132BD7D89A001B4BD3181B689F4644
:100EF00000F058FB0300DAB2184B1A70174B1B783E
:100F0000002B09D00120FFF7D7FA0A2001F074FB6B
:100F10000020FFF7D1FA17E0032000F0E1FC13E016
:100F20003A1D0823FB181100180000F039F80BE0F7
:100F300000F092FA08E00823FB18180000F066F9A8
:100F400002E000F0F7F9C046A5E7C046C006001071
:100F5000B4060010500600101C7C0000C5060010EE
:100F600080B584B000AF8423DB017B6080235B0508
:100F7000BB608023DB01FB6009E0FB681A68BB688B
:100F80001A60BB680433BB60FB680433FB60FA681B
:100F90007B689A42F1D3C046BD4604B080BDC046CE
:100FA00080B5C8B000AF78603960924B1B780122E1
:100FB0005340DBB2002B04D002F02EFB8D4B0122FC
:100FC0001A708D4B3D229A5C2023FF33FB18303A78
:100FD0001A702023FF33FB181B781800FFF76CFAF8
:100FE00000F0FCFC7423FB181800FFF705FB7423CA
:100FF000FB181978804B382299547423FB185978C0
:101000007D4B392299547C4B37229B5C452B12D166
:101010007023FB181800FFF7C3FA7023FB18197828
:10102000754B3A2299547023FB185978724B3B2226
:10103000995400F00DFD704B37229B5C452B01D07D
:1010400000F056FD6C4B36229B5C452B00D0A9E08E
:101050007B681B7801225340DBB2002B05D0FFF7E1
:1010600025FC7B6801221A7001E0FFF7CDFC624B82
:1010700035229B5C452B00D082E00023FB660023D9
:101080008C225200BA1813602C23FB184022002136
:10109000180002F0C9FC0C23FB18202200211800C4
:1010A00002F0C2FC7823FB18A0222021180002F0D5
:1010B000BBFC524B1B680021180001F01FFC4F4B7A
:1010C00018682C23FA184023102101F003FD6C232B
:1010D000FA187823F9182C23FB18180000F0BCFE2E
:1010E000464B1B680121180001F008FC444B1B68AB
:1010F000002B15D17823FB18103310211800FFF7AF
:101100009DFC3F4B01221A603B6810221A603D4B48
:101110003C4A126801210A431A603A4B01225A6084
:10112000384B1B68012213403ED0FB6E102B3BD97D
:10113000344B344A126801210A431A603B681B6829
:101140001A00FB6E10339A4205D23B681B685A1C8A
:101150003B681A6002E03B6800221A603B681B682B
:101160008C225200BA1813607823FA188C235B0083
:10117000FB181B68D31810211800FFF75FFC13E061
:1011800021497823FB181022180002F049FC78232B
:10119000FB1810221900002000F012FE184B00224C
:1011A0001A6001E0FFF716FC7323FB18180000F02B
:1011B000D1FB7323FB1819780F4B3E2299540F4B28
:1011C0001B680021180001F0BFFB0C4B18680A4A8D
:1011D000F8231901402301F029FD084B1868FA2370
:1011E0005A000023092101F039FAC046BD4648B033
:1011F00080BDC0469106001050060010B4060010D5
:10120000C0060010004001406C7C000080B584B036
:1012100000AF7860444B1B7801225340DBB2002BB7
:1012200004D000F03DFB404B01221A707B681B7814
:1012300001225340DBB2002B05D0FFF737FB7B6860
:1012400001221A7001E0FFF7DFFB384B3B229B5C69
:1012500019000220FFF7DEFA344B39229B5C19009B
:101260000120FFF7D7FA314B3A229B5C190000208E
:10127000FFF7D0FA00F0BAFC0F23FB1800221A7017
:101280000F23FB18180000F065FB0F23FB181B78D9
:10129000002B2FD00F23FB181B781A0001231340BB
:1012A00004D0224B3B22FF21995403E01F4B3B22E9
:1012B000002199540F23FB181B781A0004231340B4
:1012C00004D01A4B3A22FF21995403E0174B3A22DB
:1012D000002199540F23FB181B781A000223134096
:1012E00004D0124B3922FF21995403E00F4B3922CD
:1012F000002199540E4B1B680021180001F024FBBB
:101300000B4B1868094AF8231901402301F08EFCA1
:10131000074B1868FA235A000023092101F09EF9AF
:10132000C046BD4604B080BD9006001050060010B7
:10133000B406001080B582B000AF0120FFF7BCF802
:10134000642001F059F91E4B186880239BB21D4A96
:10135000002101F06BFCFB1D08221A700CE0184BF9
:101360001868FB1D1978184A102301F007FEFB1DB1
:101370001A78FB1D01321A70FB1D1B78372BEED932
:101380000F4B1868114A1023382101F0F7FD0C4B60
:1013900018680F4A1023392101F0F0FD084B186836
:1013A0000C4A10233A2101F0E9FD0320FFF784F8ED
:1013B000642001F021F9C046BD4602B080BDC046A0
:1013C000B40600105C7B0000DC7B0000EC7B0000BE
:1013D000FC7B00000C7C000080B582B000AF01F007
:1013E00027F903007B6027E0FB1C00221A70194BD1
:1013F0001B68FA1C0021180001F0E0FCFB1C1B78A4
:101400001A00402313400BD1124B1B680121180016
:1014100001F09AFA0F4B1B680121180001F06EFAD7
:1014200001F006F902007B68D21AFA239B009A4267
:1014300002D9FFF7CFFA09E0064B1868FA235A00E1
:101440000023082101F00AF9031ECDD1C046BD4694
:1014500002B080BDB406001080B582B000AF344B3E
:1014600040220021180002F0DFFA00237B607A6836
:101470002F4BD3182F490C22180002F0D1FA0C235D
:101480007B607B685A1C7A602B4A1178284AD154B9
:101490007B685A1C7A60264A2E21D1547B685A1CDC
:1014A0007A60264A1178224AD1547B685A1C7A60A5
:1014B0001F4A0A21D1547A681D4BD31820490C22A7
:1014C000180002F0ADFA7B680C337B607B685A1C15
:1014D0007A60174A3321D1547B685A1C7A60144AC7
:1014E0002E21D1547B685A1C7A60114A3621D1547E
:1014F0007B685A1C7A600E4A0A21D154114B1B6832
:101500000021180001F020FA0E4B1868084AF82351
:101510001901402301F08AFB0A4B1868FA235A008C
:101520000023092101F09AF8C046BD4602B080BDF3
:1015300050060010807C0000BC060010C40600109D
:10154000907C0000B406001080B500AF1249124A2A
:101550008E239B00D358032293431A008E239B00B3
:10156000CA50002002F010F902F006F90B4A80235D
:10157000DB051100180002F071F9094B1A68FA2313
:101580009900100002F085FA03001800FFF7AEFB87
:10159000C046BD4680BDC04600800440801A06009B
:1015A000C806001080B58CB000AF974B00221A70AF
:1015B0000023FB62954B40220021180002F034FA10
:1015C000934B1B680121180001F098F903001A00E1
:1015D000904B1A708F4B1B78002B03D08D4B1B78D0
:1015E0001BB20DE1FFF7B0FF01F022F803003B62F0
:1015F00001235B42BB6200237B620123FB61844BBE
:101600001868FA235A000123082101F027F8031E65
:1016100002D001235B42F3E07D4B18687B4AF8233C
:101620001901402301F056FA03001A00794B1A7091
:10163000784B1B78002B02D001235B42E0E0FB6A71
:101640000133FB62FB6A0122134001D0002300E05A
:1016500002231800FEF730FF6F496C4B0822180078
:1016600002F0EAF90300FB61FB69002B0AD067492D
:10167000BB6A40221800FFF755FA03007B627B6AC1
:10168000BB6207E06149BB6A3C221800FFF74AFAD7
:1016900003007B62FB69002BB1D15C4B3F229B5C5A
:1016A0001A065A4B3E215B5C1B041A43574B3D21E3
:1016B0005B5C1B021343554A3C21525C1343BB61E4
:1016C00000F0B6FF03007B61514B1B68002118003E
:1016D00001F03AF94D4B40220021180002F0A4F924
:1016E000FB6A3B6100F0A4FF0300FB6001235B4247
:1016F000BB620023BB6074E03B69DAB2FB6ADBB219
:10170000D31ADAB2414B1A70FB6A012B32D142492B
:101710003E4B0822180002F083F93C49BB6A3C2288
:101720001800FFF7FFF90300BB607A6ABB699A42B1
:1017300004D0364B3B220121995403E0334B3B222A
:1017400000219954BB68D9B2304B3C229954BB68F4
:101750001B0AD9B22D4B3D229954BB681B0CD9B240
:101760002A4B3E229954BB681B0ED9B2274B3F220D
:10177000995409E02549BB6A40221800FFF7D2F9C5
:101780000300BB60BB68BB62214B18681F4AF8238B
:101790001901402301F04AFA03001A001D4B1A7088
:1017A0001C4B1B78002B02D001235B4228E0184B16
:1017B0001868FA235A000123092100F04FFF031E85
:1017C00002D001235B421BE0FB6A0122134001D0DF
:1017D000002300E002231800FEF76EFEFB6A013BC7
:1017E000FB62FB6A002B87D100F022FF03007B60C5
:1017F0007A6ABB699A4202D001235B4200E000236F
:101800001800BD460CB080BD9106001050060010B7
:10181000B4060010C5060010A07C000080B500AF23
:101820000020FEF749FE01F0F7FEFEF7C7FD00F0CD
:10183000D1FE01F06DFD154B154A1A60154B1800CD
:1018400001F0AAFE01F098FF134B1A68FA239900E1
:10185000100002F01EF903001800FFF747FA0B4BC7
:101860001B681900002001F0FBF802000B4B1A6006
:10187000002300220321002001F01AFCFFF76AFA7E
:10188000FEF722FFC046BD4680BDC0464C06001094
:10189000EFBEADDEA0860100C8060010B406001041
:1018A00080B500AFFEF744FFFEF778FF0120FEF79A
:1018B000D7FF1320FFF792F91320FFF779F90021E2
:1018C0000020FEF7A7FF00210120FEF7A3FF002163
:1018D0000220FEF79FFFFEF755FFC046BD4680BDC4
:1018E00080B582B000AF0200FB1D1A700020FEF729
:1018F000E3FD642000F080FEFB1D1B781800FEF75E
:10190000DBFD642000F078FE0020FEF7D5FD6420AA
:1019100000F072FEFB1D1B781800FEF7CDFD642061
:1019200000F06AFE0020FEF7C7FD642000F064FEB0
:10193000FB1D1B781800FEF7BFFD642000F05CFE65
:101940000020FEF7B9FD642000F056FEC046BD46FB
:1019500002B080BD80B582B000AF78600C20FEF789
:1019600001FE031E07D07B681B7801221343DAB205
:101970007B681A7006E07B681B7801229343DAB219
:101980007B681A700D20FEF7EDFD031E07D07B6803
:101990001B7802221343DAB27B681A7006E07B6878
:1019A0001B7802229343DAB27B681A700E20FEF78E
:1019B000D9FD031E07D07B681B7804221343DAB2DB
:1019C0007B681A7006E07B681B7804229343DAB2C6
:1019D0007B681A70C046BD4602B080BD80B582B03B
:1019E00000AF1A4B39229B5C002B2AD03B007C2293
:1019F0001A703B0000225A703B00C0229A703900D6
:101A00008023DB050322180001F038FF3B00402251
:101A10005A700E4B38229A5C3B009A703B002E2283
:101A2000DA700A4B39229A5C3B001A713B0056224D
:101A30005A7139008023DB050622180001F01EFFD1
:101A4000C046C046BD4602B080BDC046500600102C
:101A500080B584B000AF3B007C221A703B000022AE
:101A60005A703B00C5229A7039008023DB0503229F
:101A7000180001F003FF3B0040225A701B4B282244
:101A80009A5C3B009A70194B29229A5C3B00DA70F1
:101A90003B002E221A71154B2A229A5C3B005A7188
:101AA0003B0043229A713B002022DA710F4B2E2219
:101AB0009A5C3B001A720D4B2F229A5C3B005A72C3
:101AC0003B002E229A72094B30229A5C3B00DA725C
:101AD0003B0046221A7339008023DB050D221800D3
:101AE00001F0CCFEC046BD4604B080BD50060010DB
:101AF00080B584B000AF3B007C221A703B0000220E
:101B00005A703B00C5229A7039008023DB050322FE
:101B1000180001F0B3FE3B0040225A703B002D221A
:101B20009A703B002D22DA703B002E221A713B0086
:101B30002D225A713B0043229A713B002022DA7118
:101B40003B002D221A723B002D225A723B002E229E
:101B50009A723B002D22DA723B0046221A7339003A
:101B60008023DB050D22180001F088FEC046BD462B
:101B700004B080BD90B587B000AFF860B9607A60FE
:101B80001723FB1801221A701EE01723FB181B787D
:101B9000BA68D31AFA68D4187B680A21180001F0D1
:101BA00078FF0B00DBB23033DBB223707B680A2195
:101BB000180001F06EFF03007B601723FB181A78F2
:101BC0001723FB1801321A701723FB181A78BB6809
:101BD0009A42DAD91723FB181B78013BFA68D3180D
:101BE00000221A70C046BD4607B090BD80B588B0CF
:101BF00000AF0C23FB187C221A700C23FB18002268
:101C00005A700C23FB1880229A700C23F918802339
:101C1000DB050322180001F031FE0C23FB184022E3
:101C20005A700C23FB1820229A700C23FB185222A6
:101C3000DA700C23FB1820221A710C23FB182022C7
:101C40005A710C23FB1820229A710C23FB182022B6
:101C5000DA710C23FB1820221A720C23FB1847227E
:101C60005A720C23FB1820229A720C23FB18202294
:101C7000DA720C23FB1820221A730C23FB18202283
:101C80005A730C23FB1820229A730C23FB18422250
:101C9000DA730C23FB1820221A740C23F918802302
:101CA000DB051122180001F0E9FD0C23FB187C2252
:101CB0001A700C23FB1800225A700C23FB18C02248
:101CC0009A700C23F9188023DB050322180001F019
:101CD000D5FD3A4B3B229B5C1A000823FB180321DD
:101CE0001800FFF747FF354B3A229B5C1A003B1D5B
:101CF00003211800FFF73EFF304B39229B5C1A008E
:101D00003B0003211800FFF735FF0C23FB1840228E
:101D10005A700823FB181A780C23FB189A700823B2
:101D2000FB185A780C23FB18DA700823FB189A78F2
:101D30000C23FB181A710C23FB1820225A710C2358
:101D4000FB1820229A710C23FB182022DA713B1D0C
:101D50001A780C23FB181A723B1D5A780C23FB18B7
:101D60005A723B1D9A780C23FB189A720C23FB18AD
:101D70002022DA720C23FB1820221A730C23FB1882
:101D800020225A733B001A780C23FB189A733B00ED
:101D90005A780C23FB18DA733B009A780C23FB1853
:101DA0001A740C23F9188023DB051122180001F0A6
:101DB00065FDC046BD4608B080BDC0465006001057
:101DC00080B596B000AFF860B9607A601023FB1858
:101DD0007C221A701023FB1800225A70FB68002B1B
:101DE00004D11023FB1880229A7003E01023FB1803
:101DF000C0229A701023F9188023DB0503221800F3
:101E000001F03CFD1023FB187C221A701023FB18F4
:101E100040225A7000237B650BE07B6D0233B9686A
:101E20007A6D8A1811781022BA18D1547B6D01335B
:101E30007B657B687A6D9A42EFD37B6802331A0028
:101E40001023F9188023DB05180001F017FDC046A8
:101E5000BD4616B080BDC04680B598B000AFF860F2
:101E6000B9607A60FB6802331A785F23FB18072198
:101E70000A401A705E23FB18FA6812791A705F2301
:101E8000FB181B78012B00D007E1FB6805331B789A
:101E9000542B11D15E23FB181B78033BDAB27B680D
:101EA0001A70BB6810331800FB68093319007B688F
:101EB0001B781A0001F0B4FDFB6805331B78552B25
:101EC00037D100237B633823FB181A220021180026
:101ED00001F0AAFDFB6806331B783422BA183821BA
:101EE0007918180000F0E0F8BB6810337A6B3821DD
:101EF0007918180001F094FD7B6B1A005D23FB1824
:101F00001A705D23FB181B781033BA68D018FB6871
:101F1000D91D5E23FB181B78013B1A0001F080FDE0
:101F20007A6B5E23FB181B78013BD318DAB27B680F
:101F30001A70FB6805331B78532B7FD1FB6809337C
:101F40001A785C23FB18033A1A70BB681033180028
:101F5000FB680E3319005C23FB181B781A0001F094
:101F60005FFDFB6809331A785B23FB180A321A708D
:101F70005A23FB185B22BA18127805321A70002314
:101F80007B611823FB181A220021180001F04CFD78
:101F90005A23FB181B78FA68D3181B781422BA1836
:101FA00018217918180000F07FF85C23FB181B78C3
:101FB0001133BA68D3187A6918217918180001F01A
:101FC0002FFD5923FB185A22BA18127801321A70C1
:101FD0005A23FB181B78023BFA68D2185823FB18C7
:101FE00012781A707B691A005723FB181A705C2349
:101FF000FB181A785723FB181B78D3181133BA68CB
:10200000D0185923FB181B78FA68D1185823FB18ED
:102010001B78013B1A0001F003FD5C23FA185723DB
:10202000FB1812781B78D318DAB25823FB181B78E8
:10203000D318DBB2013BDAB27B681A70FB68053358
:102040001B78482B29D1FB6806331B78732B24D1CE
:102050005623FB18FA68927C1A705523FB18142239
:102060001A70BB6810330F491722180001F0D8FC12
:10207000BB68273318005523FB181B78FA68D11862
:102080005623FB181B781A0001F0CAFC5623FB18D4
:102090001B781733DAB27B681A70C046BD4618B099
:1020A00080BDC046AC7C000080B584B000AFB96094
:1020B0007A600F23FB18021C1A700F23FB181B7881
:1020C000232B00D9A8E19A00D54BD3181B689F4653
:1020D0007B680B221A707B681B781A00D149BB6899
:1020E000180001F09DFC97E17B680C221A707B6858
:1020F0001B781A00CC49BB68180001F091FC8BE1F9
:102100007B6807221A707B681B781A00C749BB6876
:10211000180001F085FC7FE17B6808221A707B685B
:102120001B781A00C249BB68180001F079FC73E102
:102130007B6804221A707B681B781A00BD49BB6853
:10214000180001F06DFC67E17B6807221A707B685C
:102150001B781A00B849BB68180001F061FC5BE10C
:102160007B681A221A707B681B781A00B349BB6817
:10217000180001F055FC4FE17B680A221A707B6859
:102180001B781A00AE49BB68180001F049FC43E116
:102190007B6807221A707B681B781A00A949BB6804
:1021A000180001F03DFC37E17B6807221A707B685C
:1021B0001B781A00A449BB68180001F031FC2BE120
:1021C0007B6806221A707B681B781A009F49BB68DF
:1021D000180001F025FC1FE17B6806221A707B685D
:1021E0001B781A009A49BB68180001F019FC13E12A
:1021F0007B6806221A707B681B781A009549BB68B9
:10220000180001F00DFC07E17B6806221A707B685C
:102210001B781A009049BB68180001F001FCFBE034
:102220007B6805221A707B681B781A008B49BB6893
:10223000180001F0F5FBEFE07B6809221A707B685B
:102240001B781A008649BB68180001F0E9FBE3E03F
:102250007B6805221A707B681B781A008149BB686D
:10226000180001F0DDFBD7E07B6807221A707B685D
:102270001B781A007C49BB68180001F0D1FBCBE049
:102280007B6804221A707B681B781A007749BB6848
:10229000180001F0C5FBBFE07B6804221A707B6860
:1022A0001B781A007249BB68180001F0B9FBB3E053
:1022B0007B6804221A707B681B781A006D49BB6822
:1022C000180001F0ADFBA7E07B6805221A707B685F
:1022D0001B781A006849BB68180001F0A1FB9BE05D
:1022E0007B6805221A707B681B781A006349BB68FB
:1022F000180001F095FB8FE07B6808221A707B685C
:102300001B781A005E49BB68180001F089FB83E066
:102310007B680A221A707B681B781A005949BB68CF
:10232000180001F07DFB77E07B6809221A707B685A
:102330001B781A005449BB68180001F071FB6BE070
:102340007B680A221A707B681B781A004F49BB68A9
:10235000180001F065FB5FE07B680B221A707B6858
:102360001B781A004A49BB68180001F059FB53E07A
:102370007B6807221A707B681B781A004549BB6886
:10238000180001F04DFB47E07B680B221A707B6858
:102390001B781A004049BB68180001F041FB3BE084
:1023A0007B680C221A707B681B781A003B49BB685B
:1023B000180001F035FB2FE07B680C221A707B6857
:1023C0001B781A003649BB68180001F029FB23E08E
:1023D0007B680C221A707B681B781A003149BB6835
:1023E000180001F01DFB17E07B6808221A707B685B
:1023F0001B781A002C49BB68180001F011FB0BE098
:102400007B680B221A707B681B781A002749BB680F
:10241000180001F005FBC046C046BD4604B080BDB3
:10242000407E0000C47C0000D07C0000E07C000006
:10243000E87C0000F47C0000FC7C0000047D0000CF
:10244000207D00002C7D0000347D00003C7D0000DC
:10245000447D00004C7D0000547D00005C7D000048
:10246000647D0000707D0000787D0000807D0000AC
:10247000887D0000907D0000987D0000A07D000018
:10248000A87D0000B47D0000C07D0000CC7D000070
:10249000D87D0000E47D0000EC7D0000F87D0000A8
:1024A000087E0000187E0000287E0000347E0000B8
:1024B000B0B582B000AF02003960FB1D1A70FB1D81
:1024C0001B787F2B32D92F4CFB1D1B781A000F2352
:1024D0001340083B99082B4AFB1D1B7818000F235B
:1024E0000340083B9B0806339B00D31804331B684A
:1024F000FA1D1278100003220240D200FF20904003
:102500000200D2431A403B689B01FF201840FB1D8C
:102510001B781D0003232B40DB00984003001A4367
:102520008B1D9B00E31804331A6027E0164CFB1D3B
:102530001B785BB29B081449FA1D127852B29208BC
:10254000C03292005258F91D097808000321014059
:10255000C900FF2088400100C94311403A68920138
:10256000FF201040FA1D1278150003222A40D200E5
:10257000904002000A43C0339B001A51C046BD463A
:1025800002B0B0BD00ED00E000E100E080B582B037
:1025900000AF78607B68013B0C4A934201D901236C
:1025A00010E00B4B7A68013A5A6001235B42032129
:1025B0001800FFF77DFF064B00229A60044B0722AC
:1025C0001A6000231800BD4602B080BDFFFFFF0067
:1025D00010E000E080B500AF064B1A68FA239900BE
:1025E000100001F056FA03001800FFF7CFFFC046B5
:1025F000BD4680BDC806001080B584B000AF7860CD
:10260000094B1A687B68D318FB6003E0074B18007E
:1026100001F0C2F9FA68044B1B689A42F6D8C0462A
:10262000BD4604B080BDC046940600100080034043
:1026300080B500AF024B1B681800BD4680BDC04688
:102640009406001080B500AF034B1B685A1C024B68
:102650001A60C046BD4680BD9406001080B588B0A3
:1026600000AFF86008007A6019000B23FB18021C09
:102670001A700A23FB180A1C1A701723FB18002271
:102680001A701F23FB1800221A700023BB610B2352
:10269000FB181B780E2B00D973E09A00804BD318DF
:1026A0001B689F460A23FB181B78002B00D16AE0A9
:1026B000FB680021180000F00DF964E00A23FB1804
:1026C0001B78002B61D0FB681021180000F002F984
:1026D0005BE00A23FB181B78002B58D0FB682021F5
:1026E000180000F0F7F852E07A68FB680121180042
:1026F00000F080F90300CFE00A23FB181B78002BC1
:1027000047D0FB680021180000F0D0F841E00A2310
:10271000FB181B78002B3ED0FB680421180000F04A
:10272000C5F838E00A23FB181B78002B35D0FB686E
:102730000821180000F0BAF82FE00A23FB181B78D4
:10274000002B2CD0FB683021180000F0C3F8FB6888
:102750000C21180000F0AAF821E01F23FB18012229
:102760001A701DE01F23FB1808221A7018E01F239F
:10277000FB1810221A7013E01F23FB1880221A7016
:102780000EE0012388E0C0460AE0C04608E0C046EB
:1027900006E0C04604E0C04602E0C04600E0C04695
:1027A0000B23FB181B78092B14D89A003D4BD31828
:1027B0001B689F467A68FB680021180000F01AF930
:1027C000030069E07A68FB680121180000F012F943
:1027D000030061E0C0461723FA18FB6806211800C1
:1027E00000F0ECFA0B23FB181B780A3B042B52D8A1
:1027F0009A002D4BD3181B689F460120FFF7FCFE63
:102800001723FA18FB680621180000F0D7FABB69F5
:102810000133BB61BA697B689A4209D21723FB185E
:102820001B781F22BA1812781340DBB2002BE4D0B9
:102830001723FB181B781F22BA1812781340DBB23B
:102840005A425341DBB227E00120FFF7D5FE1723A0
:10285000FA18FB680621180000F0B0FABB690133D2
:10286000BB61BA697B689A4209D21723FB181B78AF
:102870001F22BA1812781340DBB2002BE4D11723C1
:10288000FB181B781F22BA1812781340DBB25A1EAD
:102890009341DBB200E001231800BD4608B080BDC3
:1028A000D07E00000C7F0000347F000080B582B035
:1028B00000AF78600A00FB1C1A70FB1C1B7878685C
:1028C0000C22002100F0BEFA03001800BD4602B041
:1028D00080BDC04680B582B000AF78600A00FB1CA6
:1028E0001A70FB1C1B7878683022002100F0AAFACD
:1028F00003001800BD4602B080BDC04680B584B05C
:1029000000AF78600A00FB1C1A700F23FB1800222E
:102910001A70FB1C1B78002B04D00F23FB184022DD
:102920001A7003E00F23FB1800221A700F23FB1804
:102930001B7878684022002100F084FA0300180018
:10294000BD4604B080BDC04680B584B000AF78609D
:102950000A00FB1C1A700E23FB1800221A800D239C
:10296000FB1800221A700D23FA187B68002118004A
:1029700000F024FA0D23FB181B781A0001231A40DB
:10298000FB1C1B789A4229D00D23FB181B781A00D8
:102990004023134016D07B6800211800FFF7AEFFDC
:1029A000FB1C1B7878680122002100F04BFA030021
:1029B0001A000E23FB181A807B6801211800FFF70C
:1029C0009DFF0BE0FB1C1B7878680122002100F0C2
:1029D00039FA03001A000E23FB181A800E23FB1885
:1029E00000229B5E5A1E9341DBB21800BD4604B024
:1029F00080BDC04680B584B000AFF8607A600B231C
:102A0000FB180A1C1A700B23FB181B78002B02D032
:102A1000012B10D01FE0FB68587A0023002202210E
:102A200000F046FBFB685B7A7A681100180000F042
:102A30007DFB030010E0FB68587A0023002203218D
:102A400000F036FBFB685B7A7A681100180000F032
:102A50006DFB030000E001231800BD4604B080BDFB
:102A600080B582B000AF02003960FB1D1A70FB1DFB
:102A70001B78002B26D1FB1D1A78154913005B002B
:102A80009B181B015B5C052B1CD1FB1D1A781049A0
:102A900013005B009B181B01CB1804333A681A60C3
:102AA000FB1D1A780A4913005B009B181B010022CA
:102AB0005A54FB1D1A7813005B009B181B01044A33
:102AC0009B1800E000231800BD4602B080BDC04640
:102AD0000002001080B588B000AFF86008007A608E
:102AE00019000A23FB18021C1A800823FB180A1C71
:102AF0001A801E23FB1800221A80FB681B78052B06
:102B000001D101238EE0FB6800221A7078E00A23CD
:102B1000FB181A881E23FB181B88D318002B00DA19
:102B20000F331B111A001723FB181A700A23FB1806
:102B30001B88DAB21E23FB181B88DBB2D318DAB26B
:102B40001623FB180F210A401A701623FB181B7856
:102B50001022D11A0823FB181A881E23FB181B8881
:102B6000D31A0A009A4200DD1A001523FB181A70C6
:102B70001523FB181B780F2B29D80023BB611723C3
:102B8000FB181978F8680023002200F093F9031E5F
:102B900040D10023BB6113E01E23FB181A88BB69D8
:102BA000D3187A68D3181622BA181178BA698A1815
:102BB0000132F9688A18127F1A70BB690133BB6150
:102BC0001523FB181A78BB699A42E5D80DE01E233D
:102BD000FB181B887A68D2181723FB181978F86835
:102BE000102300F067F9031E16D11523FB181B787C
:102BF00099B21E23FB181E22BA1812888A181A804E
:102C00001E23FA180823FB1812881B889A4200D248
:102C10007DE702E0C04600E0C046FB681B785A1E14
:102C20009341DBB21800BD4608B080BD80B588B0C6
:102C300000AFF86008007A6019000A23FB18021C34
:102C40001A800823FB180A1C1A801E23FB18002276
:102C50001A80FB681B78052B01D10123A9E0FB68D2
:102C600000221A7093E00A23FB181A881E23FB180F
:102C70001B88D318002B00DA0F331B111A001723FF
:102C8000FB181A700A23FB181B88DAB21E23FB18E4
:102C90001B88DBB2D318DAB21623FB180F210A40C7
:102CA0001A701623FB181B781022D11A0823FB1860
:102CB0001A881E23FB181B88D31A0A009A4200DDCB
:102CC0001A001523FB181A701523FB181B780F2BFD
:102CD00044D80023BB611723FB181978F868002338
:102CE000002200F0E7F8031E5BD11723FB181B78C6
:102CF000002B08D11623FB181B78002B03D0FB6890
:102D00001A7AFB685A770023BB6114E01623FB187C
:102D10001A78BB69D31801331E22BA181188BA6910
:102D20008A1879688A181178FA68D3180A1C1A77F1
:102D3000BB690133BB611523FB181A78BB699A4242
:102D4000E4D8FB681C335A1C1723FB181978F86861
:102D5000102300F013F9031E0ED025E01E23FB18EC
:102D60001B887A68D2181723FB181978F868102383
:102D700000F004F9031E16D11523FB181B7899B235
:102D80001E23FB181E22BA1812888A181A801E23C6
:102D9000FA180823FB1812881B889A4200D262E7AF
:102DA00002E0C04600E0C046FB681B785A1E934113
:102DB000DBB21800BD4608B080BDC04680B584B007
:102DC00000AFF8607A600B23FB180A1C1A70FB68CE
:102DD000FE22DA72FB680B22BA1812781A73FB68AB
:102DE0001B7ADB18DAB2FB689A72FB680A3303219C
:102DF000180000F0E5FB031E04D0FB6801221A70E6
:102E000001231BE0FB681B7A5B005BB201221343CA
:102E10005BB2DAB2FB681A77FB681C330221180038
:102E200000F0E4FB031E04D0FB6802221A700123A9
:102E300004E0FB685A7F7B681A7000231800BD46C7
:102E400004B080BD90B583B000AF78600C00100076
:102E50001900FB1C221C1A70BB1C021C1A707B1C64
:102E60000A1C1A707B68FE22DA727B68FA1C1278E0
:102E70001A737B68BA1C12785A737B687A1C1278B2
:102E80009A737B681B7ADB18DAB27B689A727B686C
:102E90000A330521180000F093FB031E04D07B6861
:102EA00001221A70012300E000231800BD4603B080
:102EB00090BDC04680B586B000AFF86008007A606B
:102EC00019000B23FB18021C1A700A23FB180A1C9A
:102ED0001A7000237B61FB680B22BA181278DA7231
:102EE000FB681B7ADB18DAB2FB689A72FB680A335C
:102EF0000221180000F064FB031E04D0FB680122CD
:102F00001A70012336E0FB681B7A5B005BB201227A
:102F100013435BB2DAB2FB681A77FB681C331121EA
:102F2000180000F063FB031E04D0FB6802221A7035
:102F300001231FE00A23FA180A23FB181B78D9B2D1
:102F4000102900D91023137000237B610BE07A68ED
:102F50007B69D3187A690132F9688A18127F1A706E
:102F60007B6901337B610A23FB181A787B699A42DB
:102F7000EDD800231800BD4606B080BD80B588B0EE
:102F800000AFF86008007A6019000B23FB18021CE0
:102F90001A700A23FB180A1C1A701723FB18002248
:102FA0001A700323FB610023BB61FB680B22BA1874
:102FB0001278DA720A23FA180A23FB181B78D9B29E
:102FC000102900D9102313700023BB610CE0BB69EA
:102FD00002337968BA698A181178FA68D3180A1C1A
:102FE0009A72BB690133BB610A23FB181A78BB696B
:102FF0009A42ECD80A23FB181B78BB6108E0BB6936
:103000000233FA68D31800229A72BB690133BB619C
:10301000BB690F2BF3D9FB681B7ADB18DAB2FB68AC
:103020009A72FB680A331221180000F0C9FA031ED5
:1030300004D0FB6801221A70012335E00B23FB1832
:103040001B78F72B0AD90B23FB181B78FB2B05D811
:10305000FB681B785A1E9341DBB225E00520FFF781
:10306000CBFA1723FA18FB6806211800FFF7A6FE13
:10307000031E0DD1FB69013BFB61FB69002B08D0EE
:103080001723FB181B781A0002231340E6D100E037
:10309000C046FB69002B02D1FB6803221A70FB6853
:1030A0001B785A1E9341DBB21800BD4608B080BDA4
:1030B00080B586B000AFBA607B600F23FB18021C9E
:1030C0001A700E23FB180A1C1A700F23FB181A78AB
:1030D00013005B009B18DB00134A9B187B617B6924
:1030E0001B68180000F0F6F97B690E22BA181278F6
:1030F0001A727B69BA68DA607B697A681A617B69DF
:1031000000221A757B691A687B691B7A1900100006
:1031100000F044F97B691B68180000F0E9F9C0462B
:10312000BD4606B080BDC0463002001080B586B0F6
:1031300000AF02003960FB1D1A70FB1D1A781300E6
:103140005B009B18DB001F4A9B187B61FFF770FA3E
:1031500003003B613A693B68D318FB607B691B68DD
:10316000180000F0C5F9184B180000F015FC7B6939
:103170001B68180000F0AEF9FFF75AFA03003B6134
:103180007B691B7D01225340DBB2002B03D0FA6820
:103190003B699A42E2D87B691B7D002B0CD07B698E
:1031A0001A687B691B7A1900100000F0F7F87B6938
:1031B00000221A75002300E001231800BD4606B066
:1031C00080BDC046300200100080034080B582B050
:1031D00000AF0200FB1D1A70064BFA1D1278110099
:1031E0001F220A40012191400A001A60C046BD46D4
:1031F00002B080BD00E100E080B582B000AF020007
:10320000FB1D1A70074AFB1D1B7819001F230B407A
:10321000012199400B0019008023D150C046BD46C2
:1032200002B080BD00E100E080B582B000AF0200D6
:10323000FB1D1A70084AFB1D1B7819001F230B4049
:10324000012199400B001900C0235B00D150C046FA
:10325000BD4602B080BDC04600E100E080B582B04E
:1032600000AF786008001100FB1C021C1A70BB1C28
:103270000A1C1A700949FB1C1A7813005B009B1882
:10328000DB001A00BB1C1B78D3181A007B685E3366
:103290009B005A50C046BD4602B080BD008004402D
:1032A00080B582B000AF0200FB1D1A700749074AC3
:1032B0008023D358FA1D1278012090400200134356
:1032C00080228B50C046BD4602B080BD00800440C5
:1032D00080B582B000AF78607B68172B01D80023DF
:1032E00011E07B68172B04D97B68372B01D80123A9
:1032F00009E07B68372B04D97B683F2B01D8022378
:1033000001E001235B421800BD4602B080BDC0460B
:10331000B0B582B000AF00237B601320FFF7C0FF81
:1033200000237B6031E07A6813005B009B18DB00B0
:10333000194A9B183B603B681B68180000F0CAF8EC
:103340003B685B68013315D03B681C683B685B6871
:103350001800FFF7BDFF0300DDB23B685B68182172
:10336000180000F096FB0B00DBB21A0029002000C9
:10337000FFF774FF3B681A683B681B7A190010005E
:1033800000F00CF87B6801337B607B68002BCAD0AF
:10339000C046BD4602B0B0BD3002001080B582B05C
:1033A00000AF78600A00FB1C1A70FB1C1B78012B15
:1033B00065D002DC002B3ED085E0022B02D0032B2F
:1033C0001CD080E0424B424A126801207968884054
:1033D00001000A431A603E4B3D4A52680120796859
:1033E000884001000A435A60394B394A126901206A
:1033F0007968884001000A431A6164E0344B344A1A
:10340000126801207968884001000A431A60304B35
:103410002F4A526801207968884001000A435A60A7
:103420002B4B2B4A12690120796888400100C9435F
:103430000A401A6147E0264B01217A6891400A0050
:103440005A62234B224A12680120796888400100A1
:10345000C9430A401A601E4B1D4A52680120796810
:10346000884001000A435A60194B194A1269012029
:10347000796888400100C9430A401A6123E0144B6F
:1034800001217A6891400A005A62114B104A126871
:103490000120796888400100C9430A401A600C4B3A
:1034A0000B4A52680120796888400100C9430A40EC
:1034B0005A60074B064A126901207968884001006A
:1034C0000A431A61C046C046BD4602B080BDC04630
:1034D00000C0044080B582B000AF78607B685BB20A
:1034E0001800FFF789FEC046BD4602B080BDC04649
:1034F00080B582B000AF78607B685BB21800FFF7E0
:1035000093FE7B685BB21800FFF760FEC046BD46C5
:1035100002B080BD80B582B000AF0C4B7B607B6891
:10352000DB68002B05D07B68DA687B681B691800B4
:1035300090477B6801221A757B681B681800FFF7AB
:10354000C9FFC046BD4602B080BDC0463002001073
:1035500080B582B000AF0C4B7B607B68DB68002BD2
:1035600005D07B68DA687B681B69180090477B6828
:1035700001221A757B681B681800FFF7ABFFC04675
:10358000BD4602B080BDC0464802001080B500AF05
:10359000C046BD4680BDC04680B582B000AF7860F1
:1035A000002000F04BF97A688023DB051100180039
:1035B00000F054F900231800BD4602B080BDC0469B
:1035C00080B582B000AF78600A00FB1C1A70FB1C4B
:1035D0001A7879688023DB05180000F04FF90300A2
:1035E0001BB21800BD4602B080BDC04680B582B097
:1035F00000AF78600A00FB1C1A70FB1C1A7879680F
:103600008023DB05180000F06FF903001BB21800DF
:10361000BD4602B080BDC04680B500AF00F04AF89C
:1036200000F010F8C046BD4680BDC046022806D84E
:10363000034B1A5C01235940A023DB0599547047C2
:103640004C7F000070B5A024E405200000F0ECF8E9
:10365000802380229B01E15880200A43E25001220E
:10366000E271E15840000143E1502272E158001834
:1036700001430C48E150627225580B492940215002
:10368000E07D4821002806D18020E1580004014354
:10369000E1504621E2752022044B1A70044B197048
:1036A00070BDC04604200000FFFFF7FFC4060010F5
:1036B000BC06001070B580248022234D52022B5985
:1036C0009021134388222B51204B40201C605C60CA
:1036D000DA60073A1A615A619022D2009961DA6180
:1036E0001A625A6291221A635A639A630222FF3263
:1036F0001A64553ADC65995000F052F980222B5932
:10370000120213432B51F023114A5B006B621169C3
:10371000E03BFF3B0B431361022000F035F80D4AFC
:103720007D3C1369A343136100F026F80A4A0B4B52
:103730000B4813601B680460DB68446084605B684E
:103740000849984770BDC0460080044000400440CE
:103750000040004000C00340B8060010F81FFF1FE3
:1037600098060010A8060010043189000B581B04AD
:103770009B0D01201380704710B500F00FF8014B2E
:10378000186010BDC80600100022034B18675A6766
:1037900001325A677047C04600800440032100B5DB
:1037A0001D4A83B0136F0B40022B20D0032B10D087
:1037B000012B06D01948184B996F00F06AF903B035
:1037C00000BD136C1940F5D0012923D1144B1868A2
:1037D000F1E79168126C134016D0012B1AD11F200B
:1037E0000F4B08401B68013001935843E3E71F214A
:1037F000536ADA051940120F0A4B92000131490051
:10380000D05800F046F9D6E71F20044B084001309D
:103810005843D0E70020CEE700800440001BB700EB
:10382000487F0000507F00008022402302498858D2
:1038300003438B507047C046008004408021202203
:10384000054B585802435A50022259689143596017
:1038500059680A435A60704700800440064B10B50F
:103860000400186800F015F942081304801A1B0CB4
:1038700080B22361606110BDC80600103C23F0B522
:10388000802783618A18243303600824F825FF0504
:1038900020268A4211D003681C42FCD043682B408A
:1038A000102B1BD016D9182B01D0282B14D10B7834
:1038B0000131836084618A42EDD1002108220368CE
:1038C0001A42FCD080231022DB051A600823836192
:1038D0000800F0BD082B01D00121EFE7BE610B7895
:1038E000013183608461E6E7F0B524235F465646E4
:1038F0004D464446F0B403608023DB059C46042318
:1039000099460433984618338B4600250824F82638
:103910009A46571EAA4213D0AF4220D003681C42D9
:10392000FCD043683340402B1DD00BD9502B2BD0FB
:10393000582B1BD1594683684B550135AA42EBD110
:10394000002314E0082B01D0102B0FD16346514601
:1039500099615B465B5D013583608461DAE76346AC
:1039600049469961DAE743468361D3E70123802220
:103970001021D20511600822826118003CBC9046DB
:103980009946A246AB46F0BD594683684B5543461F
:1039900001358361BEE7C0460023036030BF704736
:1039A0008E2110B5054C89006358054A134002402A
:1039B0009343E82212021343635010BD0080044079
:1039C000FF0500000C4B98420DD00C4B98420DD0D7
:1039D00080230B4A9B0090420AD0802209498858D4
:1039E00003438B5070478023DB00F6E78023F4E726
:1039F000013BFF3BF1E7C0460080014000C00040B2
:103A0000000001400080044000234268436001330D
:103A10008360013343608368002BFCD142607047B0
:103A200010B500F070F810BD10B500F082F810BDB0
:103A300010B5FDF7FFF910BD03000B4330B59B0730
:103A40000FD1104D032A0CD904680B689C4208D191
:103A50000D4BE318A3432B4203D104300431043A45
:103A6000F0E70024A2420AD0035D0D5DAB4201D015
:103A7000581B05E00134002BF4D1180000E00020B1
:103A800030BDC04680808080FFFEFEFE03000B43F9
:103A900021D4002931D00122D207030901E0090114
:103AA00012099942FBD9430801E0490052089942A2
:103AB000FBD900E04908401A07D35241FAD3014626
:103AC0001046704749084018F7D29218FAD34018A8
:103AD000014610467047CB0F00D04942021000D576
:103AE0004042534008B5FFF7D4FF0CBC521000D33E
:103AF0004042002A00D549421847F446002000F011
:103B000001F8604770478446830708D18B0706D1C8
:103B1000131F04D304C904C0043BFBD21A1D524234
:103B200005D0891A801A8B5C83540132FBD1604620
:103B300070478446043A09D3830707D109060B0A64
:103B400019430B0C1943043A02C0FCD2043203D0CF
:103B500001700130013AFBD160467047AA000000B5
:103B60000000000000000000E1106D00035F910202
:103B70003553709101145402656E4E5441472049EB
:103B80003243204558504C4F52455251011955016E
:103B90006E78702E636F6D2F64656D6F626F6172EA
:103BA000642F4F4D35353639540F13616E64726F83
:103BB00069642E636F6D3A706B67636F6D2E6E78FC
:103BC000702E6E74616769326364656D6FFE00000C
:103BD00000000000000000000000000000000000E5
:103BE00000000000000000000000000000000000D5
:103BF0000000000000000000000000FF00000000C6
:103C0000FFFFFFFF00000000000000000100F84877
:103C1000080100000000000000000000364F000016
:103C2000964E0000964E0000964E0000964E000004
:103C3000964E0000964E0000964E0000964E0000F4
:103C4000204F0000964E0000964E0000964E000059
:103C5000964E0000964E0000424F0000F04E0000CD
:103C6000964E0000964E0000304F00004E544147E3
:103C7000493243204578706C6F7265720000000015
:103C8000426F617264205665722E3A200000000077
:103C90004657202020205665722E3A200000000052
:103CA00066696E6973685F5300FFFFFF48616E6469
:103CB0006F7665722053656C656374205265636F1F
:103CC00072642000687474703A2F2F7777772E0013
:103CD00068747470733A2F2F7777772E0000000086
:103CE000687474703A2F2F0068747470733A2F2FB1
:103CF0000000000074656C3A000000006D61696CA2
:103D0000746F3A006674703A2F2F616E6F6E796D22
:103D10006F75733A616E6F6E796D6F7573400000E9
:103D20006674703A2F2F6674702E0000667470737C
:103D30003A2F2F00736674703A2F2F00736D623A1A
:103D40002F2F00006E66733A2F2F00006674703AB2
:103D50002F2F00006461763A2F2F00006E65777375
:103D60003A00000074656C6E65743A2F2F000000F5
:103D7000696D61703A000000727473703A2F2F0001
:103D800075726E3A00000000706F703A000000001B
:103D90007369703A00000000736970733A000000A4
:103DA000746674703A00000062747370703A2F2F5A
:103DB0000000000062746C326361703A2F2F0000C3
:103DC0006274676F65703A2F2F0000007463706F24
:103DD0006265783A2F2F0000697264616F626578BE
:103DE0003A2F2F0066696C653A2F2F0075726E3A74
:103DF0006570633A69643A0075726E3A6570633A49
:103E00007461673A0000000075726E3A6570633A3B
:103E10007061743A0000000075726E3A6570633A22
:103E20007261773A0000000075726E3A6570633A0D
:103E30000000000075726E3A6570633A7261770037
:103E400018640000D0600000E8600000006100001D
:103E500018610000306100004861000060610000EE
:103E60007861000090610000A8610000C06100005E
:103E7000D8610000F06100000862000020620000CC
:103E8000386200005062000068620000806200003A
:103E900098620000B0620000C8620000E0620000AA
:103EA000F862000010630000286300004063000017
:103EB000586300007063000088630000A063000086
:103EC000B8630000D0630000E863000000640000F5
:103ED00082670000E8660000F8660000A466000043
:103EE000BC660000D26600000E6700002467000078
:103EF0003A6700003A670000786700005A670000E0
:103F00005A6700006E67000064670000D467000015
:103F1000C4670000C4670000B4670000B467000015
:103F2000B4670000C4670000C4670000C4670000F5
:103F3000C467000014680000146800006268000094
:103F40001468000062680000001BB700070809FF42
:103F500000000000C027090090051000C05C15009B
:103F6000F0B31A00200B2000009F2400E03229004B
:103F7000C0C62D0050973100E06735007038390019
:103F800000093D004016400080234300C030460039
:103F900005000000000000005500000000000000C7
:103FA0000000000000000000000000000000000011
:103FB0000000000000000000000000000000000001
:103FC000000000002B0000000000000000000000C6
:083FD0000000000000000000E9
:00000001FF
